:1000000000800010010400007D0400008504000051
:100010007D0400007D0400007D040000000000005D
:100020000000000000000000000000007D0400004F
:100030007D040000000000007D0400007D0400003D
:100040007D0400007D0400007D0400007D040000AC
:100050007D0400007D0400007D0400007D0400009C
:100060007D0400007D0400007D0400007D0400008C
:100070007D0400007D0400007D0400007D0400007C
:1004000000F03DF8084809490022814201D004C0AB
:10041000FBE707480749084A814202D008CA08C0DA
:10042000FAE700F00BF800DE0000001000000010FA
:1004300000000010000000108804000080B56F4626
:1004400000F000F880B56F464CF263080225C2F256
:1004500009080026C8F8005041F68024F0074FF044
:100460001800C0F2060418BF1C2048F8005000F025
:1004700007F8013CFBD186F00106EDE7FEE7704787
:0804800000BF7047FEE7D4D471
:0400000300000401F4
:00000001FF
