:100000000080001001040000B3040000D3040000CD
:10001000B3040000B3040000B304000000000000BB
:10002000000000000000000000000000B304000019
:10003000B304000000000000B3040000B30400009B
:10004000B3040000B3040000B3040000B3040000D4
:10005000B3040000B3040000B3040000B3040000C4
:10006000B3040000B3040000B3040000B3040000B4
:10007000B3040000B3040000B3040000B3040000A4
:1004000000F058F8084809490022814201D004C090
:10041000FBE707480749084A814202D008CA08C0DA
:10042000FAE700F00BF800DE0000001004000010F6
:100430000000001000000010D404000080B56F46DA
:1004400000F000F880B56F4600F040F8044600F078
:1004500033F840F20000C1F200000578002D04BF1F
:1004600001210170E00708BF00F028F89DB94CF2A7
:10047000600540F64054C2F209054FF00076C0F224
:1004800003042E602046AE6100F01AF82046EE61AB
:1004900000F016F8F6E700F008F880B56F4600F0B7
:1004A0000AF880B56F46FFF7F8FF80B56F46FFF793
:1004B000F8FFFEE77047FEE772B6704762B6704716
:1004C000012101EB50000138FDD17047EFF310809E
:0404D0007047FEE78C
:0400000300000401F4
:00000001FF
